:020000040000FA
:1000000083160614861406158615850183120618B4
:100010000A28292886180D281B28061910281728B1
:1000200086193E200000861D4420000007288619FE
:1000300041203E20072806191E28252886194A2017
:100040000000861D442000000728861944203E2019
:10005000072886182C28352806192F2831284420EF
:100060000728861944203E200728061938283C28EE
:10007000861944203E2007283E20072805108510B9
:100080000800051485140800861D080000000510EE
:1000900085140800861D080000000514851008005E
:0400A00000340034F4
:02400E00E13F90
:00000001FF
